:020000040800F2
:10000000480E002045010008A5400008452F0008C3
:10001000E13E00088D0D000881500008000000003E
:10002000000000000000000000000000D1450008B2
:100030008F0D0008000000007D43000825490008DE
:100040005F0100085F0100085F0100085F01000810
:100050005F0100085F0100085F0100085F01000800
:100060005F0100085F0100085F0100085F010008F0
:100070005F0100085F0100085F0100085F010008E0
:100080005F0100085F0100085F0100085F010008D0
:100090005F0100085F0100085F0100085F010008C0
:1000A0005F0100085F0100085F0100085F010008B0
:1000B0005F0100085F0100085F0100085F010008A0
:1000C0005F0100085F0100085F0100085F01000890
:1000D0005F0100087D4E00089D4E00086150000839
:1000E0005F0100085F0100085F0100085F01000870
:1000F0005F0100085F0100085F0100085F01000860
:100100005F0100085F0100085F0100085F0100084F
:100110005F0100085F010008A54900085F010008B1
:100120005F0100085F0100085F0100085F0100082F
:10013000DFF80CD000F032FD00480047857C000855
:10014000480E00200648804706480047FEE7FEE7C5
:10015000FEE7FEE7FEE7FEE7FEE7FEE7FEE7FEE777
:10016000A3490008310100082DE9F0410024061BD5
:10017000254671F1000605DA01240027D0EB0700BF
:1001800067EB0101161E73F1000605DA0027D2EBBA
:100190000702012567EB030300F0CAFB86460E4603
:1001A00017469C46AC4204D00025D0EB050E65EB0B
:1001B000010624B10020D2EB000760EB030C70466F
:1001C00031463A466346BDE8F081202A04DB203AF6
:1001D00021FA02F00021704721FA02F3D040C2F167
:1001E0002002914008431946704740EA01039B07EB
:1001F00003D009E008C9121F08C0042AFAD203E09C
:1002000011F8013B00F8013B521EF9D27047D2B2FF
:1002100001E000F8012B491EFBD270470022F6E7EF
:1002200010B513460A4604461946FFF7F0FF20466C
:1002300010BD30B505462A460B4612F8010B13F8DF
:10024000014B08B1A042F8D01CB1002802D06D1CAF
:10025000F1E7284630BD30B504460020034600E0F3
:100260005B1C934203D2E05CCD5C401BF8D030BDF8
:1002700070B5064604F03AFF046805460A220021DC
:10028000304600F0A7FB2C6070BDF0B480EA01029C
:10029000D40F4200B2EB410F02D20246084611468B
:1002A0004A0042D0C30DDDB2C1F3C752AD1A202DB2
:1002B00035DAC1F3160141F4000204B15242C5F12E
:1002C000200602FA06F12A411044B3EBD05F23D096
:1002D000C4B1012DA0EBC35009DCF0BC4FF00042CB
:1002E00002EAC352DBB200F5000000F0B4BB4000EC
:1002F00000F1807000EBC350A0F1807040EAD17033
:10030000490009E0490841EAC071A0EBC35000F57B
:100310000000400800EBC350F0BC00F093BB61420A
:10032000012202EB4101001BF6E7F0BC704781F0AF
:100330000041AAE780F00040A7E780EA010210B57B
:1003400002F00043400022D04A001FD0010E01EB12
:100350001261C0F35600C2F3560240F4000042F4AA
:100360000002A0FB022000047F39140400D0401CCE
:1003700050EA124001D44000491EC2B20C0604EB00
:10038000D010401C4008802A02D003E0002010BD9D
:1003900020F00100002900DA0020184310BD30B41D
:1003A00080EA010202F0004530F0004221F00040F6
:1003B00013D090B1C30DD40DC2F31601C0F31600D3
:1003C000E41A41F4000140F400027D34914201D36B
:1003D000641C00E04900002C02DA30BC00207047A9
:1003E0004FF400000023914201D3891A03434008CF
:1003F0004FEA4101F7D151B1914202D14FF0004192
:1004000005E002D24FF0010101E06FF0010103EBC2
:10041000C450284430BC00F015BB420005D0C0F3E6
:10042000C7525242914201DC0020704700EBC1509C
:1004300070472DE9FE4F804681EA0300C00F0C464D
:10044000009021F0004123F00045B8EB0200A941E3
:1004500005D24046214690461C460B46024623F0F4
:100460000040104347D0270DC7F30A00C3F30A51D9
:100470000290401A019040286BDAC3F3130040F455
:10048000801B0098924620B10023D2EB030A63EB55
:100490000B0B01985946C0F14002504600F079FA22
:1004A00006460D4650465946019A00F081FA10EB77
:1004B00008006141002487EA115284EAE7731A4375
:1004C00040D0009A62B3019A012A4FEA075215DC24
:1004D000001B61EB02014FF0004202EA0752CDE936
:1004E0000042001C41F5801132462B4600F0F0FA24
:1004F00003B0BDE8F08F40462146F9E7001B61EBF1
:100500000201001C41F5801300185B412018A2F580
:10051000001747EB030140EAD570B6196D4111E0B1
:100520006D084FEA360645EAC0754FEA0752001BD0
:1005300061EB0201001C41F5801149084FEA3000CF
:100540000019514132462B4603B0BDE8F04F00F090
:10055000B0BA0098012240000023D0EB020263EB06
:10056000E073009821464FEAE074B8EB000061EBBD
:100570000401E9E783F000435BE781F0004158E7BD
:100580002DE9FE4F81EA030404F0004421F000410C
:1005900000944FF0000B23F0004350EA01045ED0BA
:1005A00052EA03045BD0C3F30A54C1F30A552C4446
:1005B000A4F2F3340194A0FB0254C1F3130141F4FB
:1005C0008011C3F3130343F4801301FB024400FBC7
:1005D000034E840A970A44EA815447EA8357A4FBEE
:1005E000076802958D0A05FB07854FEA932C04FBEB
:1005F0000C542705029D4FEA065847EA1637B5EB1B
:1006000008056EEB070C870E920E47EA811742EA47
:100610008312A7FB0201B6EB0B0164EB00042B0D68
:1006200043EA0C335E1844EB1C50DA465146E7FBB4
:100630000201C5F313044FEA0B3343EA14534FEAA4
:100640000432019C43EA0603A4F10C040294009CCA
:10065000CDE900B400F03CFA03B0BDE8F08F002013
:100660000146F9E72DE9F04D81EA030404F0004B5F
:1006700021F0004514464FF0000A23F0004150EAF3
:10068000050220D054EA01021DD0C5F30A570246E4
:10069000C5F31303C1F31300C1F30A5640F48015E8
:1006A00043F48013A7EB0608101BD64608F2FD386A
:1006B00073EB050002D308F1010801E092185B41D9
:1006C000B8F1000F03DA00200146BDE8F08D0020EC
:1006D0004FF48011064684460EE0171B73EB0507A6
:1006E00005D3121B63EB050306434CEA010C4908D2
:1006F0004FEA300092185B4150EA0107EDD152EA0F
:10070000030012D082EA040083EA0501084305D001
:10071000101BAB4106D20122002306E000224FF05D
:10072000004302E06FF0010253101AEB06004CEB9D
:10073000085110EB0A0041EB0B01BDE8F04D00F051
:10074000B8B970B521F0004303430CD0C1F30A558A
:100750000024D5EB040564EB0403D617AD1AB341AE
:1007600002DB0020014670BD201841EB025170BD34
:10077000C10F80EAE0700844CA079623002100F008
:100780006AB996230022114600F065B90EB5C10F73
:1007900080EAE0700844CA07002140F233438DE844
:1007A0000E000A460B4600F093F903B000BD00F0BE
:1007B000004220F00040C10DC0F3160040F40000DC
:1007C0007F2901DA00207047962903DCC1F19601E8
:1007D000C84001E096398840002AF4D04042704772
:1007E00020F00040C10DC0F3160040F400007F2946
:1007F00001DA00207047962903DCC1F19601C84058
:10080000704796398840704770B5C1F30A5201F0BD
:1008100000450024C1F3130140F2FF3341F480117D
:100820009A4201DA002070BD40F233439A42A2F2AC
:10083000334203DC5242FFF7C8FC00E090402C43F7
:10084000F1D0404270BD00F0004230F000400AD0CC
:10085000C10D01F56071C0F3160042EA0151C208F2
:1008600040071143704700200146704730B5041E11
:1008700071F1000404DB4FF00044404264EB0101DD
:10088000141E73F1000405DB1C464FF00043524276
:1008900063EB04038B4208BF824230BD30B5041EB7
:1008A00071F1000404DB4FF00044404264EB0101AD
:1008B000141E73F1000405DB1C464FF00043524246
:1008C00063EB0403994208BF904230BD01F000433E
:1008D00030B421F0004150EA010206D00A0DA2F521
:1008E0006072C1F31301002A02DC30BC00207047A3
:1008F000440F44EAC104C100E01830BC00EBC25010
:1009000000F0A0B830B50B4601460020202201249B
:1009100009E021FA02F59D4205D303FA02F5491BCD
:1009200004FA02F52844151EA2F10102F1DC30BDE3
:100930002DE9F05F0546002092469B468846064614
:10094000814640241BE02846414647462246FFF7A1
:100950003CFC53465A46C01A914110D311461846E2
:10096000224600F016F82D1A67EB01084F46224682
:100970000120002100F00DF817EB00094E41201E68
:10098000A4F10104DFDC484631462A464346BDE86F
:10099000F09F202A04DB203A00FA02F10020704781
:1009A0009140C2F1200320FA03F3194390407047AD
:1009B000202A06DBCB17203A41FA02F043EAE07323
:1009C00006E041FA02F3D040C2F120029140084310
:1009D000194670472DE9F04791460F468046044678
:1009E000002614F8015B2DB100F0EAF80068405DC4
:1009F000C007F6D12B2D02D02D2D18D0641E4A46EB
:100A00003946204600F0E0F827B13968A14201D10B
:100A1000C7F8008071054FF002040BD54042002852
:100A200003DD04F063FB0460A007BDE8F08746F433
:100A30008066E4E70028F8DA04F058FB04606FF001
:100A40000040F2E70029A8BF7047401C490008BFDA
:100A500020F00100704710B4B0FA80FC00FA0CF0EE
:100A600050EA010404BF10BC704749B1CCF1200426
:100A700021FA04F411FA0CF118BF012121430843B3
:100A8000A3EB0C01CB1D4FEA00614FEA102042BFDF
:100A9000002010BC704700EBC35010440029A4BFD5
:100AA00010BC7047401C490008BF20F0010010BC7A
:100AB000704710B5141E73F1000408DA401C41F1B0
:100AC000000192185B411A4301D120F0010010BDD2
:100AD0002DE9F04D92469B4611B1B1FA81F202E048
:100AE000B0FA80F220329046FFF753FF04460F46DB
:100AF00040EA0A0041EA0B0153465A46084313D024
:100B0000114653EA010019D0C8F140025046FFF7E0
:100B10005CFB05460E46504659464246FFF739FFF4
:100B2000084305D0012004E020463946BDE8F08D99
:100B30000020054346EAE0762C4337430A986305D4
:100B4000E40AA0EB08000022FD0A44EA47540A30F8
:100B500002D500200146E9E7010510196941DDE9E8
:100B6000084500196941BDE8F04DA2E7C1F30A52FA
:100B7000C1F3130140F2FF3341F480119A4202DACB
:100B800000200146704740F233439A42A2F23342BA
:100B900002DC5242FFF719BBFFF7FBBE064C074DC4
:100BA00006E0E06840F0010394E80700984710343D
:100BB000AC42F6D3FFF7C0FA90B60008B0B6000812
:100BC000004870479CB500082DE9F05F8246007828
:100BD000002715468B460AF10104B946302801D09A
:100BE0009DB113E014F8010B0127782803D0582891
:100BF00001D045B10AE00DB1102D07D10027102515
:100C000014F8010B02E0082500E00A250026B04692
:100C10000EE005FB080005FB06F1012701EB10467D
:100C20001FFA80F8B6F5803F00D3B94614F8010BDF
:100C3000294600F076F80028EBDABBF1000F05D06A
:100C40000FB1641E00E05446CBF80040B9F1000F2C
:100C500006D004F04BFA02210160C81EBDE8F09FE7
:100C600048EA0640FAE72DE9F04D00231A461B1A20
:100C70008A4103DB00200146BDE8F08DC1F30A5232
:100C8000C1F3130141F480154FF0000BD10702D1DD
:100C900000186D41521E0027044640F2FF113846ED
:100CA00001EB620A3E468046024600204FF4801166
:100CB000FFF78BFAC2197141BB1846EB0100B4EB88
:100CC000030C75EB000C04D3E41A65EB0005174622
:100CD0000E46241908F101006D4180463428E3DDF9
:100CE000F91946EB0600091BA84103D24FF0FF3269
:100CF000134601E0002213461BEB070046EB0A51A6
:100D0000BDE8F04DFFF7D5BE0EB540F2334102917C
:100D10000021CDE900110A460B46FFF7D9FE03B0CA
:100D200000BD3A2800D2303820F02002412A01D3F9
:100D3000A2F13700884201D34FF0FF307047000026
:100D400070B5044600688168C943C9071CD1816831
:100D500021F00101816000F04DFB05460FE000BF6E
:100D600000F048FB401B022809D9A06A40F010009F
:100D7000A062E06A40F00100E062012070BD2068DE
:100D80008068C043C007EBD0002070BDFEE770470D
:100D900010B510220549064801F09AFF0548006881
:100DA000C16841F02001C16010BD0000680400204E
:100DB00068030020A803002003480068012802DB24
:100DC00002A004F05FB97047000000204C6364206B
:100DD000696E6974206572726F722E2E2E2E2E2E01
:100DE0002E0D0A0001480068406A7047B8010020D3
:100DF00001480068406A704790020020014800687E
:100E0000406A70474802002001480068406A704705
:100E100000020020F8B50024009490F82420254614
:100E2000012A12D0012280F824204A681F23072AB1
:100E30000DD20668776B521E02EB820293409F43ED
:100E40000B6893401F43776319E00220F8BD0668E2
:100E50000D2A0AD2376BD21F02EB820293409F43C6
:100E60000B6893401F43376309E0F76A0D3A02EBC2
:100E7000820293409F430B6893401F43F7620A68C6
:100E8000072306680A2A0AD3F7680A3A02EB4202E5
:100E900093409F438B6893401F43F76008E0376996
:100EA00002EB420293409F438B6893401F4337619C
:100EB0000A68102A01D0112A20D1124B02689A42E6
:100EC00017D193681B0219D4936843F4000393600D
:100ED0000968102912D10C490C4A0968B1FBF2F1DA
:100EE00001EB8101490000E0491E00910029FBD17E
:100EF00004E0816A41F020018162012480F82450DD
:100F00002046F8BD002401403C00002040420F0074
:100F10002DE9F04104004FF0000514D0A06A00262E
:100F200028B9E66284F82460204600F083F8204661
:100F3000FFF706FFA16A01F01001014304D0A06A87
:100F400040F01000A0626BE0A16A21F4885141F0EA
:100F50000201A162334923688B42E16904D1B1F5F2
:100F6000402F01D14FF40021277B4FF4807C41EAD0
:100F7000470261680A43A168614509D0012907D089
:100F80005FF0000194F814E0BEF1010F02D00AE016
:100F90006146F7E7C7B1A76A47F02007A762E76A8B
:100FA00047F00107E7625F6827F469470F435F6016
:100FB000236899681C4F394011439960A1686145C5
:100FC0000BD0012909D00CE0DFF860E0A7690EEB37
:100FD00047370F4347F40061E5E7218A0D05A5F582
:100FE00080152168CB6A23F470032B43CB62216800
:100FF00089680F4B1940914208D1E662A16A21F03D
:10100000020141F00101A162BDE8F081A06A20F077
:10101000020040F01000A062E06A40F00100E062CF
:101020000120F1E7003C0140FDF7E1FF00E0FFFF98
:10103000FE0E1FFF00B585B00021009101910291C5
:10104000039100680E49884218D10E48816941F425
:1010500080618161816901F480610491816941F05D
:10106000080181618069694600F008000490012050
:10107000009003200190044800F0B2F805B000BDD4
:101080000028014000100240000C01402DE9F05FF3
:1010900090F821100024022903D004218163012447
:1010A00085E001680A6822F00E020A6001680A6899
:1010B00022F001020A603F4E3E4FB215DFF8F4C045
:1010C000DFF8F090DFF8ECA0DFF8E8B0DFF8E4E05C
:1010D0000168783F13011502ACF1640CA9F15009C5
:1010E000AAF13C0AABF1280BAEF1140E4FF48018B4
:1010F000B14227D9B9420ED0614512D049451DD021
:10110000514518D0594518D0714501D1424615E0D6
:10111000294EB14201D1012210E0274E1436B142CE
:1011200001D110220AE0244E2836B14206D0224ACC
:101130003C32914201D11A4600E02A461E49091F5D
:101140000A602BE0B94213D0614517D0494522D03F
:1011500051451DD059451DD0714501D142461AE077
:10116000B14202D14FF0807215E0134EB14201D16D
:10117000012210E0104E1436B14201D110220AE0D3
:101180000D4E2836B14206D00B4A3C32914201D175
:101190001A4600E02A46074980394A60012180F852
:1011A0002110002180F82010416B01B188472046B2
:1011B000BDE8F09F800002400804024070B504467C
:1011C00000F018F90546601C02D004480078044479
:1011D00000F010F9401BA042FAD370BD300000208F
:1011E0002DE9F84FDFF8C891002409F1040A0AF14B
:1011F000040B23460F270BF1040ED1E00125A54077
:1012000006EA0502AA4276D1DFF8A8C14E68A6EB2D
:101210000C0866452BD00DDC032E34D005DC36B32C
:10122000012E19D0022E2FD11BE0112E16D0122E16
:101230002AD119E0B8F5881F19D006DCB8F5803F2F
:1012400015D0B8F5801F1FD111E0B8F5001F0ED0E2
:10125000B8F5041F18D10AE0CB6815E0CB681B1D58
:1012600012E0CB6808330FE0CB680C330CE08B68DE
:101270002BB1012B4FF0080303D0456104E0042398
:1012800002E0056100E00023FF2A01D8064601E0E4
:1012900000F104064FEA840501D9A5F12005D6F82E
:1012A000008007FA05FC28EA0C0803FA05F548EA6D
:1012B0000508C6F800804D68ED0070D53E4DAE695A
:1012C00046F00106AE61AD6924F0030605F00105A4
:1012D00000953A4D06EB050CDCF80850A607360FD2
:1012E00007FA06F825EA0805DFF8D480404503D15F
:1012F0004FF0000825E052E0DFF8C880404502D1F9
:101300004FF001081DE0DFF8C080404502D14FF0EA
:10131000020816E0DFF8B480404502D14FF0030820
:101320000FE0DFF8AC80404502D14FF0040808E040
:10133000DFF8A080404502D14FF0050801E04FF0F2
:10134000060808FA06F848EA0508CCF808804D684F
:10135000D9F80060ED034D4601D5164300E09643F1
:101360002E604D68DAF80060AD03554601D516438E
:1013700000E096432E604D68DBF80060ED025D46AC
:1013800001D5164300E096432E604D68DEF80060FC
:10139000AD02754601D5164300E096432E60641CED
:1013A0000A681646E2407FF429AFBDE8F88F0000D6
:1013B0000004014000001110001002400000014034
:1013C00000080140000C01400010014000140140E1
:1013D00000180140001C0140C26821EA02030A40D3
:1013E00043EA0241016170470AB101617047090493
:1013F000FBE70000014880687047000030000020D3
:1014000070B5040025D094F83D00002520B984F87B
:101410003C50204600F078FA242084F83D002068F3
:10142000016821F0010101602068016841F4004178
:1014300001602068016821F40041016000F052FC65
:101440004D4A6168914201D84C4900E04C498842BC
:1014500001D2012070BD4B492368B0FBF1F15E68F9
:1014600026F03F060E435E606368934206D94FF450
:10147000967359434FF47A73B1FBF3F12368491C17
:101480001E6A26F03F06314319626168914210D806
:101490004900401EB0FBF1F2521CC2F30B02042AB9
:1014A00001D2042022E0B0FBF1F0401CC0F30B009D
:1014B0001CE0A268F2B301EBC10303EB0116431E6B
:1014C000B3FBF6F35B1C43F480431B0549D092B396
:1014D00001EBC10202EB0111401EB0FBF1F0401C18
:1014E000C0F30B0040F4804040F400402168CA691A
:1014F0004CF6FF739A431043C861D4E907100143C7
:101500002068026822F0C00211430160D4E903019F
:1015100001432068826848F2FF339A431143816097
:10152000D4E9050108432168CA6822F0FF0210438C
:10153000C86001E00EE016E02068016841F001019A
:1015400001602564202084F83D00256384F83E5026
:10155000002070BD01EB4106431EB3FBF6F35B1C9C
:10156000B3E70120C2E701EB4101401EB0FBF1F0FF
:10157000401CC0F30B00B7E7A086010080841E006A
:1015800000093D0040420F002DE9FF4F83B00025C8
:10159000DDE910799A4693460446DDF848800095C7
:1015A000FFF728FF064694F83D0020287CD1192338
:1015B000012285492046009601F0D4FD0028F5D18E
:1015C00094F83C0001286FD0012084F83C0020688A
:1015D0000168C90703D1016841F001010160206879
:1015E000016821F400610160222084F83D00402060
:1015F00084F83E0025646762A4F82A90608D2085F7
:101600007248E062CDE9008653465A462046049966
:1016100001F0B0FC00287DD1208DDFF8B4912027A7
:1016200068B1012814D00228206801681ED041F456
:10163000806101602068416980690090B6E020689F
:10164000416981690091016841F400710160ADE078
:101650002068016821F48061016072B620684169E8
:1016600081690091016841F400710AE041F4006170
:10167000016072B62068416981690091016821F4B6
:101680008061016062B691E0032868D801280CD01F
:10169000022843464FF000024946204600960FD0EC
:1016A00001F060FDB0BB10E08BE0324641462046C1
:1016B00001F0D7FD70BB20680069616A08706CE0BA
:1016C00001F050FD30BB72B634E02068016821F4AF
:1016D0008061016072B620680069616A0870606AA2
:1016E000401C6062208D401E2085608D401E6085FC
:1016F000384846F2A8110068B0FBF1F0C0EBC0001A
:1017000000EB80000090401E009008D020684069E7
:10171000C04300E029E040070CD50098F3E744F807
:10172000305F6773A573206940F02000206162B6C6
:1017300025731AE02068016841F400710160206897
:101740000069616A0870606A401C6062218D491EF0
:101750002185618D491E618562B621681BE0324694
:101760004146204601F07DFD18B1012007B0BDE8DB
:10177000F08F20680069616A0870606A401C6062CE
:10178000218D491E2185618D491E618521684A6927
:10179000D24352070AD409690170606A401C606232
:1017A000208D401E2085608D401E6085208D002884
:1017B0007FF46AAF84F83D7084F83E5084F83C5062
:1017C000D4E70220D2E70000020010000000FFFF73
:1017D000040001003C0000202DE9FF4F83B09A4631
:1017E000DDE9119793460446DDF84080FFF702FEDD
:1017F000054694F83D0020287FD119230122404955
:101800002046009501F0AEFC002876D194F83C000B
:10181000012872D0012084F83C0020680168C907C3
:1018200003D1016841F0010101602068016821F4E1
:1018300000610160212084F83D00402084F83E00D2
:1018400000262664C4F82480A4F82A90608D2085A0
:101850002C48E062CDE9007553465A46204604996B
:1018600001F006FC70B930E02A463946204601F006
:101870002BFD58B1206C042804D12068016841F484
:1018800000710160012007B0BDE8F08F606A216837
:1018900000780861606A401C6062218D491E89B22F
:1018A0002185628D521E628522685369DB435B0786
:1018B0000BD469B100781061606A401C6062208DB1
:1018C000401E2085608D401E6085208D0028CBD174
:1018D0002A463946204601F01FFC0028CAD154F898
:1018E0003D0B016841F400710160202004F81E09DD
:1018F000E67766770020C6E7FFE70220C3E700002F
:10190000020010000000FFFF10B586B0002100911A
:1019100001910291039100681349884222D1134C2E
:10192000A06940F00800A061A069694600F00800C5
:1019300004904FF440700090122001900320039017
:101940000B48FFF74DFC0B48416841F0E06141F066
:1019500002014160E06940F40010E061E06900F4D8
:101960000010049006B010BD00540040001002406A
:10197000000C0140000001400248816802781144D7
:101980008160704730000020074810B5016841F0C1
:1019900010010160032000F075F8002000F006F847
:1019A00000F024F8002010BD0020024070B50D4D5D
:1019B00004464FF47A712878B1FBF0F00A490968BF
:1019C000B1FBF0F000F074FB48B9102C07D20022F4
:1019D0002146501E00F036F800206C6070BD0120DA
:1019E00070BD0000300000203C0000200C4808B50D
:1019F000816941F001018161816901F0010100917A
:101A0000C16941F08051C161C06900F0805000900F
:101A10000448416821F0E06141F00071416008BD77
:101A20000010024000000140002809DB00F01F0206
:101A3000012191404009800000F1E020C0F8001130
:101A400070470000F0B40E4B1B680C46C3F3022332
:101A5000C3F10705042D00D90425191D072901D25A
:101A6000002300E0DB1E012606FA05F1491E214095
:101A700099409E40761E16403143F0BC03F026BBD1
:101A80000CED00E0064900F0070208684FF6FF037E
:101A9000184040EA0220034A1043086070470000E3
:101AA0000CED00E00000FA05BFF34F8F0548016818
:101AB000054A01F4E06111430160BFF34F8F00BF9D
:101AC000FDE700000CED00E00400FA052DE9F84305
:101AD00005460078354CC00754D0E0690026C000A8
:101AE00008D4E06940F08050E061E069012600F030
:101AF000805000902E480168C90512D401688046C4
:101B000041F480710160FFF775FC074605E000BFF6
:101B1000FFF770FCC01B642823D8D8F80000C0056C
:101B2000F6D5206A10F4407021D0A98801F44071E4
:101B300081421CD0206A1F49012220F440700A60B3
:101B400000220A602062C00711D0FFF753FC07464D
:101B500041F2883808E000BFFFF74CFCC11B41454B
:101B600002D90320BDE8F883206A8007F4D5206AF3
:101B7000696820F44070084320621EB1E06920F0DB
:101B80008050E0612878800705D56068A96820F456
:101B90004040084360602878C00605D560686969E0
:101BA00020F48000084360600020DBE70010024062
:101BB00000700040400442422DE9F0470F46050006
:101BC00061D0434E306800F00700B84209D2306857
:101BD00020F0070038433060306800F00700B8425A
:101BE00051D128683B4C810712D5400703D5606866
:101BF00040F4E06060602878000703D5606840F436
:101C0000605060606068A96820F0F0000843606080
:101C10002878C00728D06868012810D021680228D9
:101C200010D0890700292EDA616821F003010143F1
:101C30006160FFF7DFFB804641F288390DE02168E3
:101C40008903EFE78901EDE7FFF7D4FBA0EB08017B
:101C5000494502D90320BDE8F0876068696800F053
:101C60000C00B0EB810FEFD1306800F00700B842F4
:101C70000BD9306820F0070038433060306800F03E
:101C80000700B84201D00120E5E72878400705D5D4
:101C90006068E96820F4E060084360602878000725
:101CA00006D56068296920F4605040EAC100606090
:101CB00000F038F86168084AC1F30311515CC8406C
:101CC0000649086006480068FFF770FE0020C2E77A
:101CD0000020024000100240489900083C0000200B
:101CE000340000200448054900684968044AC1F3EB
:101CF0000221515CC84070473C00002000100240A7
:101D0000589900080448054900684968044AC1F325
:101D1000C221515CC84070473C00002000100240C6
:101D20005899000812A185B00FC98DE80F0014A0C2
:101D3000144A006804905168134801F00C03042B06
:101D400010D0082B0ED1C1F38343C9031DF8030043
:101D50000AD5516804AAC1F34041515C0A4A504374
:101D6000B0FBF1F005B0704708494843FAE70000BE
:101D700002030405060708090A0B0C0D0E0F1010CC
:101D8000010200000010024000127A0000093D002C
:101D90002DE9F84F040070D02078C04DC00749D01D
:101DA0006868C0F38100012807D06868C0F381002B
:101DB000022809D16868C00306D52868800339D590
:101DC00060680028E7D035E06068B0F5803F0BD050
:101DD00010B1B0F5A02F11D0286820F48030286011
:101DE000286820F4802002E0286840F480302860D1
:101DF000606890B1FFF7FEFA06460AE0286840F4F2
:101E000080202860F0E700BFFFF7F4FA801B642809
:101E100073D828688003F7D50CE0FFF7EBFA064685
:101E200005E000BFFFF7E6FA801B6428F0D82868B9
:101E30008003F7D420789A4E80074FF001094FF0C5
:101E4000000839D5686810F00C0F07D06868C0F337
:101E50008100022809D16868C00306D42868800779
:101E600014D52069012808D110E02069B0B1C6F866
:101E70000090FFF7BFFA074605E00AE1FFF7BAFA5C
:101E8000C01B0228C4D828688007F7D52868616974
:101E900020F0F80040EAC10028600DE0C6F800809C
:101EA000FFF7A8FA074604E0FFF7A4FAC01B0228D0
:101EB00023D828688007F7D4207800072CD57948E4
:101EC000A169D9B1C0F80090FFF794FA074604E081
:101ED000FFF790FAC01B02280FD8686A8007F7D571
:101EE00071484FF4FA510068B0FBF1F0009000BF68
:101EF0000098411E0091FAD20EE080E0C0F8008008
:101F0000FFF778FA074604E0FFF774FAC01B0228CF
:101F100075D8686A8007F7D42078400760D5E869EB
:101F20000027C00008D4E86940F08050E861E86903
:101F3000012700F0805000905C480168C90513D467
:101F40000168834641F480710160FFF753FA8246CD
:101F500006E000BFFFF74EFAA0EB0A0064284ED857
:101F6000DBF80000C005F5D5E06801280AD008B10B
:101F7000052813D0286A20F001002862286A20F082
:101F8000040002E0286A40F001002862E06841F2A3
:101F9000883B98B1FFF72EFA82460BE0286A40F0A2
:101FA00004002862EEE700BFFFF724FAA0EB0A0165
:101FB00059455AD8286A8007F6D50CE0FFF71AFA77
:101FC000824605E0FFF716FAA0EB0A0159454CD806
:101FD000286A8007F6D41FB1E86920F08050E861D4
:101FE000E06988B36968C1F38101022944D00228FD
:101FF000C6F8608004D0FFF7FDF9044638E034E00D
:10200000FFF7F8F9074604E0FFF7F4F9C01B0228D0
:102010002BD828688001F7D4206AB0F5803F05D11D
:102020006868A16820F4003008436860D4E90801BA
:102030000843696821F4741108436860C6F8609029
:10204000FFF7D8F9044606E025E000BFFFF7D2F914
:10205000001B022809D828688001F7D51BE000BFC3
:10206000FFF7C8F9001B022802D90320BDE8F88F4A
:1020700028688001F4D40EE00128F7D06868226A4D
:1020800000F48031914204D1616A00F470108842FA
:1020900001D00120EAE70020E8E70000001002403C
:1020A00000004242800442423C0000200070004098
:1020B00010B5401EB0F1807F01D3012010BD4FF05C
:1020C000E02460610F21601703F000F80020A06198
:1020D00007202061002010BD7047704710B590F8B0
:1020E0003C20012A22D0012280F83C20CA688C685A
:1020F00022F4407222434C6822F4806222430C682E
:1021000022F4006222430C6922F4805222434C697B
:1021100022F400522243C969002322F480420A4378
:1021200001684A6480F83C30002010BD022010BDD8
:1021300070B590F83C20012A2CD0012480F83C4056
:10214000022280F83D2003685A689D6822F07006DC
:102150000A6832435A60104B02689A420ED00F4B05
:102160009A420BD0B2F1804F08D00D4B9A4205D065
:102170000C4B9A4202D00C4B9A4204D1496825F08C
:1021800080031943916080F83D40002180F83C10A5
:10219000084670BD022070BD002C01400034014093
:1021A0000004004000080040000C004010B504008E
:1021B00003D094F83D0010B107E0012010BD0020CD
:1021C00084F83C00204600F01FF8022084F83D000F
:1021D000211D206802F0ECFB012084F8460084F801
:1021E0003E0084F83F0084F8400084F8410084F801
:1021F000420084F8430084F8440084F8450084F8E1
:102200003D00002010BD000008B5114A01681148CA
:10221000914211D1C16941F01001C161C069002230
:1022200000F01000009011463620FFF70BFCBDE8CF
:1022300008403620FFF7F8BB074A914207D1816971
:1022400041F400518161806900F40050009008BDA4
:1022500000100040001002400034014090F83D1092
:10226000012901D001207047022180F83D1001684A
:10227000CA6842F00102CA6000680E4988420ED066
:102280000D4988420BD0B0F1804F08D00B498842ED
:1022900005D00B49884202D00A49884204D181689E
:1022A00001F00701062903D0016841F00101016036
:1022B00000207047002C0140003401400004004021
:1022C00000080040000C004070B5044690F83C0047
:1022D000012817D0012584F83C50022084F83D00E5
:1022E0002068826822F0770222F47F4282600868C8
:1022F000502830D00DDC20284DD005DC98B31028B4
:102300003BD148E0022070BD302844D0402834D171
:1023100039E0602828D0702806D0B0F5805F2CD036
:10232000B0F5005F29D10AE0CB68D1E9012120682E
:1023300002F091FB2068816841F0770109E0CB68E9
:10234000D1E90121206802F086FB2068816841F410
:102350008041816011E0CA684968206802F050FC41
:102360005021206807E016E0CA684968206802F03A
:1023700058FC6021206802F078FB84F83D50002072
:1023800084F83C0070BDCA684968206802F038FCD7
:1023900040212068EFE7226801461046EBE72DE96F
:1023A000F0410D46040003D094F83D0018B108E058
:1023B0000120BDE8F081002084F83C00204600F0B8
:1023C00041F8022084F83D002068816844F2070249
:1023D00091438160211D206802F0EAFA226890682A
:1023E0009169166A2B68AF69034340F20330814359
:1023F00041EA0721A868EF6908434FF6FC4188438A
:10240000E96840EA0720014328692F6A000140EA91
:102410000730084369686D6926F0220646EA05150B
:10242000294393602268906154F8460B01620120B1
:1024300004F81F09E0752076E0762077A07500206B
:10244000B7E7000070B586B00025009501950295AC
:10245000039500684549464A464E474CB0F1804FC7
:1024600022D0464B98424ED1C86940F00200C86164
:10247000C86900F002000490886940F00800886193
:102480008869694600F008000490302000903046CA
:10249000FEF7A6FE606820F4406040F0E06040F483
:1024A0000060606006B070BDC86940F00100C8619E
:1024B000C86900F001000490886940F00400886158
:1024C000886900F004000490886940F00800886181
:1024D0008869694600F0080004904FF400400090BD
:1024E0001046FEF77DFE0820CDE90005694630461E
:1024F0000295FEF775FE606820F4407040F0E060E1
:1025000040F48070CDE71E4B984214D1C86940F06A
:102510000400C861C86900F004000490886940F0B4
:10252000080088618869694600F008000490C020AE
:102530000090304616E0134B9842B3D1C86940F082
:102540000800C861C86900F008000490886940F07C
:10255000040088618869694600F004000490032043
:1025600000901046FEF73CFE9CE700000010024081
:1025700000080140000C0140000001400004004040
:1025800000080040000C004070B590F83E60044622
:1025900090F83F5090F8423090F84320022021B14B
:1025A00004290ED0012E1BD114E0012E18D1012BCD
:1025B00016D184F83E0084F84200012200212068F0
:1025C00020E0012D0CD1012A0AD184F83F0084F8C3
:1025D000430014E0012D03D1012B01D1012A01D0C8
:1025E000012070BD84F83E0084F83F0084F842006A
:1025F00084F8430001220021206802F01FFA012222
:102600000421206802F01AFA2068016841F00101F3
:102610000160002070BD704770B504460068016914
:102620004FF00005C943890715D4C168C94389071C
:1026300011D4E91E0161012020772068806980079C
:10264000204602D0FFF7E7FF04E000F0BFF8204685
:1026500000F04EF9257720680169C943490717D46E
:10266000C168C943490713D46FF004010161022016
:1026700020772068806910F4407F204602D0FFF761
:10268000CAFF04E000F0A2F8204600F031F92577F7
:1026900020680169C943090716D4C168C9430907FD
:1026A00012D46FF008010161042020772068C0690E
:1026B0008007204602D0FFF7AEFF04E000F086F866
:1026C000204600F015F9257720680169C943C9063D
:1026D00017D4C168C943C90613D46FF01001016152
:1026E000082020772068C06910F4407F204602D07F
:1026F000FFF791FF04E000F069F8204600F0F8F8D9
:10270000257720680169C943C90708D1C168C94351
:10271000C90704D1891E0161204600F045F92068EF
:102720000169C943090609D4C168C943090605D42A
:102730006FF0800101612046FFF7CEFC206801693F
:10274000C943490609D4C168C943490605D46FF095
:1027500040010161204600F035F920680169C94354
:1027600089060BD4C168C943890607D46FF02001DC
:1027700001612046BDE87040FFF7AFBC70BD0000AE
:1027800000B585B00021009101910291039100688C
:102790000B49884212D10B48816941F010018161D7
:1027A0008069694600F0100004904FF4707000904A
:1027B0000220019003900448FEF712FD05B000BD11
:1027C000003401400010024000100140704770B515
:1027D000044690F83C000D4601280AD0012084F8F8
:1027E0003C0042B1042A18D0082A2AD00C2A4DD124
:1027F00039E0022070BD206802F040F9206881694C
:1028000041F0080181612068816921F00401816142
:10281000206881692A69114311E0206802F05EF99D
:102820002068816941F4006181612068816921F437
:1028300080618161206881692A6941EA02218161A0
:1028400024E0206802F080F92068C16941F00801A5
:10285000C1612068C16921F00401C1612068C169BA
:102860002A69114311E0206802F0A2F92068C169C9
:1028700041F40061C1612068C16921F48061C161D6
:102880002068C1692A6941EA0221C161002084F8F7
:102890003C0070BD10B5040003D094F83D0010B1A9
:1028A00007E0012010BD002084F83C00204600F025
:1028B0001EF8022084F83D00211D206802F078F8FF
:1028C000012084F8460084F83E0084F83F0084F834
:1028D000400084F8410084F8420084F8430084F802
:1028E000440084F8450084F83D00002010BD704786
:1028F0007047000010B50446022249B104290ED0E9
:10290000082913D094F84100012816D0012010BDE9
:1029100094F83E000128F9D184F83E200FE094F8A5
:102920003F000128F2D184F83F2008E094F84000ED
:102930000128EBD184F8402001E084F841200122F5
:10294000206802F07BF813492068134A884201D0BE
:10295000904203D1436C43F40043436420688842AF
:102960000DD090420BD0B0F1804F08D00B49884277
:1029700005D00B49884202D00A49884204D18168B7
:1029800001F00701062903D0016841F0010101604F
:10299000002010BD002C0140003401400004004024
:1029A00000080040000C00400449006809688842A3
:1029B00002D103490120087070470000D8020020AE
:1029C000940000207047704770B502680446106894
:1029D000D168536910F00F0F53D003F0010501F4D3
:1029E00090762E435FD0C20705D0CA0503D5E26BAF
:1029F00042F00102E263420705D5DA0703D0E26B39
:102A000042F00202E263820705D5DA0703D0E26BE7
:102A100042F00402E263020707D501F020022A43D4
:102A200003D0E26B42F00802E263E26B002A34D08A
:102A3000800604D5880602D5204602F04BF92068AE
:102A40004069E16BC0F3801001F0080101432046AA
:102A500024D002F000F92068416949061AD541697D
:102A600021F040014161606BA0B12D494163606B71
:102A7000FEF70CFB002810D0606B416BBDE8704086
:102A8000084783060FD58B060DD52046BDE870405C
:102A900002F020B92046FFF796FF70BDFFF793FFC5
:102AA0000020E06370BD03062BD50B0629D594F8F2
:102AB00039002128F6D1A068B0F5805F01D12069E6
:102AC000B0B1206A411C2162216800784860E08C26
:102AD000401E0004000CE084E4D12068C16821F0AD
:102AE0008001C1602068C16841F04001C16070BDD3
:102AF000206A0088C0F308005060206A801C2062B1
:102B0000E5E74006F3D54806F1D5D168204621F027
:102B10004001D160202184F8391000F012FA70BD14
:102B2000474C000870B5040004D094F83900002523
:102B300010B106E0012070BD84F83850204600F046
:102B400023F8242084F839002068C16821F400515A
:102B5000C160204602F004F92068016921F4904127
:102B600001612068416921F02A0141612068C16842
:102B700041F40051C160E563202084F8390084F8F5
:102B80003A00002070BD0000F0B585B0002400942C
:102B90000194029403940368464F0220464903229D
:102BA000464D4602BB4225D18B6943F480438B617D
:102BB0008B6903F4804304938B6943F004038B61B6
:102BC0008969039201F0040104910102CDE900102A
:102BD00069462846FEF704FBCDE9006469462846AD
:102BE0000294FEF7FDFA002211462520FEF72AFF87
:102BF000252028E0324FBB4229D1CB6943F4003372
:102C0000CB61CB6903F4003304938B6943F0040375
:102C10008B618969039201F0040104910421CDE9DB
:102C2000001069462846FEF7DBFA0820CDE90004CB
:102C3000694628460294FEF7D3FA00221146262060
:102C4000FEF700FF2620FEF7EFFE05B0F0BD1D4D9C
:102C5000AB42FAD1CB6943F48023CB61CB6903F457
:102C6000802304938B6943F010038B618969164DAF
:102C700001F01001CDE90321CDE900606946284645
:102C8000FEF7AEFAE814CDE900046946284602943E
:102C9000FEF7A6FA0D48416821F0300141F0E061ED
:102CA00041F010014160002211462720FEF7CAFEC4
:102CB0002720C8E70038014000100240000801400A
:102CC0000044004000480040001001400000014066
:102CD00090F83A30202B22D1F9B1F2B190F8383087
:102CE000012B1CD081628285C2850021C163222212
:102CF00080F83A2080F838100168CA6842F480727F
:102D0000CA6001684A6942F001024A610068C1680C
:102D100041F02001C160002070470120704702206F
:102D20007047000038B500684449884270D1444C6F
:102D30002078492810D043A12046FDF77AFA43496C
:102D4000002808685AD0012802DB41A002F09AF955
:102D5000BDE83840FEF7A8BEA0786179303800EBB6
:102D60004002C2EBC01001EBC001E0786422504386
:102D7000227902EB820200EB42000844E179A27A58
:102D8000303901EB4103C3EBC11102EBC102217ADF
:102D900064235943637AA0F5A05003EB830301EB4E
:102DA00043011144227BE37B303A02EB4205C5EB41
:102DB000C21203EBC203627B64256A43A57BA1F5C3
:102DC000A05105EB850502EB45021A446378A2F594
:102DD000A052D038D039D03A2D2B06D0A3792D2B44
:102DE00005D0E37A2D2B04D004E0404202E04942B2
:102DF00000E05242BDE8384006F088BB03280BDBF8
:102E0000E01CFDF735FA0090A3786278217800E0A5
:102E100012E015A002F036F9E01CFDF729FA03468E
:102E2000A0783038C2B260783038C1B2207801B0B2
:102E3000BDE8304006F092BB38BD000000380140CC
:102E40006804002052455345540000008C000020C7
:102E50004D4355205374617274205265736574211B
:102E60002121210D0A0000004D6F64653D25632C72
:102E70004D6F746F724E756D3D307825782C4469B6
:102E8000633D307825782C70776D3D25640D0A0000
:102E90002DE9F843044690F839001F4616460D46C2
:102EA00020284CD1C5B1BEB194F83800012846D0D5
:102EB000012084F838004FF00008C4F83C8021203D
:102EC00084F83900FEF796FAA6848146E684A06865
:102ED000B0F5805F03D004E00120BDE8F8832069ED
:102EE00028B12E465FF0000584F838800EE00026F9
:102EF000FAE78021204601F08FFFA0B9AEB116F8A5
:102F0000010B21684860E08C401EE084E08C4B4659
:102F10004FF0000200970028EBD14FF0400120460F
:102F200001F07AFF30B10320D7E735F8020BC0F388
:102F30000800E6E7202084F839000020CDE70220D1
:102F4000CBE77047FEE701684A69D24352050FD4C8
:102F50006FF480624A61002140F8301F20224273E2
:102F60008173026942F0040202610173012070471B
:102F7000002070472DE9F84F0446006889460B9DF4
:102F800001689846174641F4806101602068016835
:102F900041F48071016000954FF0011B00225946F9
:102FA00020460A9B00F0DEF84FF4007A40B120681A
:102FB0000068C00501D5C4F840A00320BDE8F88F23
:102FC000216809F0FE0008612B46284920460A9A2C
:102FD00000F0FCF8F0BB20684169806900902A4647
:102FE00020460A9900F070F940B1206C04283AD1CB
:102FF0002068016841F40071016034E0FEB2B8F16C
:10300000010F09D02168380A08612A4620460A992A
:1030100000F05AF90028E8D1206806612A462046C7
:103020000A9900F051F90028DFD12068016841F4C5
:103030008071016000950022594620460A9B00F0ED
:1030400091F80028B3D1216809F0FF0040F0010099
:10305000086100E007E02B46044920460A9A00F088
:10306000B5F80028AAD00120A8E70000020001005E
:103070002DE9F843044600680D46DDE9089701682C
:103080009846164641F4807101604B4600224FF08D
:1030900001112046009700F065F848B120680068EB
:1030A000C00502D54FF4007020640320BDE8F8830A
:1030B000216805F0FE0008613B464A461549204656
:1030C00000F084F888B920684169806900903A4628
:1030D0004946204600F0F8F848B1206C042804D195
:1030E0002068016841F4007101600120DEE7F5B25B
:1030F000B8F1010F09D02168300A08613A46494603
:10310000204600F0E1F80028E7D1206805610020A2
:10311000CCE700000200010070B516460D460446DB
:103120000DE02046FFF70FFF08B1012070BD681CBD
:1031300005D0FEF75FF9801BA84207D835B120689B
:103140004069C0434007ECD4002070BD002044F823
:10315000300F20216173A073216941F020012161AA
:103160002073E2E72DE9F0471E4690460D460446DF
:10317000C1F30747DDF8209008E0701C06D0FEF789
:1031800039F9A0EB0900B0420FD876B12068012FC1
:1031900018D0806925EA00000004000C14D000213A
:1031A0004145EAD00020BDE8F087002044F8300F08
:1031B00020216173A073216941F0200121612073F6
:1031C0000120F0E74069E5E70121E9E72DE9F04753
:1031D0009A4691460E46044600254FF02008C1F35A
:1031E000074725E020684069C043400514D42068A3
:1031F000016841F40071016021686FF480604861EA
:10320000256384F83D8084F83E50206C40F0040033
:10321000206484F83C501FE0B9F1FF3F08D0FEF76E
:10322000E9F8A0EB0A0149450CD8B9F1000F09D023
:103230002068012F13D0806926EA00000004000CEA
:103240000BD0CFE744F8305F84F80D80A573206978
:1032500040F02000206125730120BDE8F08740691F
:10326000EAE72DE9F041002590460E460446202766
:1032700017E04069C043C0060CD454F8301B6FF00F
:103280001000486144F810596777A577206A2062DA
:10329000257717E0FEF7AEF8A0EB0800B04208D89B
:1032A0003EB120684169C9434906E2D40020BDE827
:1032B000F08144F8305F6773A573206940F0200007
:1032C000206125730120F2E770B516460D460446CD
:1032D0000DE02046FFF737FE08B1012070BD681CE5
:1032E00005D0FEF787F8801BA84207D835B12068C3
:1032F0004069C0430006ECD4002070BD002044F8B3
:10330000300F20216173A073216941F020012161F8
:103310002073E2E72DE9F84FC44E0C460188318056
:10332000418871808188B180DFF80C83C088DFF824
:1033300000B3DFF80093F080002508F11007A6F134
:10334000200A00BF36F91500FDF720FA00224B468F
:10335000FDF78CFA19D258F82500FDF717FA00226C
:103360005B46FDF79BFA10D257F82500401C47F842
:103370002500DAF80000032820DB58F8252036F96C
:103380001510AEA001F07EFE18E036F91500FDF72D
:10339000FDF900225B46FDF781FA0CD258F82500B2
:1033A000FDF7F4F900224B46FDF760FA03D257F817
:1033B0002500401E00E0002047F825006D1C042D6C
:1033C000C0DB9A48002520384646D0E90280814675
:1033D000964856F8251030F915709748103050F877
:1033E0002500C0EB00403844401AFDF7CFF94246B3
:1033F0004B46FDF737F9904ADFF864A2303202EB12
:10340000C502DFF860B2C2E9000146F825706D1C04
:10341000042DDDDBDFF8208208F13008D8E90267EF
:10342000D8E904013B463246FDF703F84FF0FF3977
:103430004A46FDF786F908F12005C5E90001D8E9FB
:10344000002339463046FDF795F84A46FDF779F9ED
:10345000C5E902017548012120384068FCF7DDFF0D
:10346000FDF7F1F989460090D8E906013B4632465E
:10347000FDF780F84B46009AFDF7F4F8C5E9040122
:1034800005F018FED5E90223FDF77AF806460F4647
:10349000D5E9040103F00EF9D5E90023FDF770F832
:1034A00032463B46FDF766F805F11806C6E900010D
:1034B000D5E9040103F0FEF8D5E90223FDF760F831
:1034C00007468846D5E9040105F0F4FDD5E9002357
:1034D00081F00041FDF754F843463A46FDF74AF8BB
:1034E000C6E90201B4F90400FDF750F90022534681
:1034F000FDF7B8F805F0DEFDD6E90223FDF740F848
:1035000007468846B4F90400FDF740F90022534607
:10351000FDF7A8F803F0CEF8D6E90023FDF730F860
:1035200043463A46FDF726F800225346FDF728F8B1
:10353000FDF76AF9218808442080B4F90400FDF7FA
:1035400025F900225346FDF78DF803F0B3F8D6E9CC
:103550000223FDF715F807468846B4F90400FDF785
:1035600015F900225346FDF77DF805F0A3FDD6E9D5
:103570000023FDF705F83A464346FCF75AFF0022C0
:103580005346FCF7FDFFFDF73FF961880022084430
:103590006080D5E904015346FCF7F2FFFDF734F9EA
:1035A000A188084400B2A080FDF7F0F85E465A46B4
:1035B0002D4BFDF773F9B4F9040006D2FDF7E6F8D8
:1035C00032462A4BFCF7D6FF0EE0FDF7DFF8324615
:1035D000274BFDF74BF90AD2B4F90400FDF7D6F8F2
:1035E0003246224BFCF725FFFDF70EF9A080D5E906
:1035F0000001002256465346FCF7C2FFFDF704F9CE
:10360000E080D5E9020100221A4BFCF7B9FFFDF773
:10361000FBF82081D5E9040100223346FCF7B0FF16
:10362000FDF7F2F86081BDE8F88F0000B8000020D7
:103630004099C940C099C9C0800400207265637672
:103640005F636F756E743D25642C63757272656E71
:10365000745F636F756E743D25640D0A0000000091
:1036600000408F40386744692F8BA8402F8BB840AB
:103670002F8BA8C000408FC02DE9F0410746B0F95C
:103680000000FDF775F8DFF868804146FCF787FE1B
:10369000FDF7D9F8174C05460E46C4E90401B7F901
:1036A0000200FDF765F84146FCF779FEFDF7CBF81F
:1036B000C4E9060102460B460F481049FCF7D2FF49
:1036C000FDF704F90E49606000200880488088807A
:1036D0000C4A0D4B28463146FCF752FF02460B467A
:1036E00000200A49FCF7BEFFC4E90201BDE8F081F1
:1036F00000007A4498000020E27A14AE47E1CA3F05
:1037000028010020140D3B549F20C83F0080A54095
:103710002DE9F84F05460C46B0F90000FDF728F8F2
:103720003B4E3146FCF73BFE8046B5F90200FDF703
:103730001FF83146FCF733FE0746B5F90400FDF7E4
:1037400017F83146FCF72BFE324D01466868FCF74E
:10375000F4FD83465E4639464046FCF7E8FD3146B7
:103760000090FCF7E4FD2C4E82464146306038461E
:10377000FCF78BFD80465946FCF7D9FD8146706009
:1037800059460098FCF781FD0746B060594640460F
:10379000FCF77BFD8046F0605046FDF754F8D5E914
:1037A0000223FCF7EDFE1D4E00223346FCF75AFFC4
:1037B000FDF72AF820804846FDF745F8D5E90223B1
:1037C000FCF7DEFE00223346FCF74CFFFDF71CF849
:1037D00060803846FDF737F8D5E90223FCF7D0FEC4
:1037E00000223346FCF73EFFFDF70EF8A08040466E
:1037F000FDF729F8D5E90223FCF7C2FE0022334683
:10380000FCF730FFFDF700F8E080BDE8F88F00001E
:1038100000007A4498000020A004002000004940E5
:1038200010B5144601280AD0B0B10E490968012923
:1038300017DB0146BDE810400BA001F023BC09B125
:10384000012902D1012000F043FF2246BDE81040CB
:1038500000210F4800F0EEBEBDE81040012000F04E
:10386000F1BF10BD880000204D6F746F724E616D06
:103870006523235F436F6E74726F6C206572726F85
:103880007220737461747573203D2025640D0A00E5
:103890002003002010B5144601280AD0B0B10E490B
:1038A0000968012917DB0146BDE810400BA001F0B3
:1038B000E9BB09B1012902D1022000F009FF22462B
:1038C000BDE810400C210F4800F0B4BEBDE8104028
:1038D000022000F0B7BF10BD880000204D6F746F4C
:1038E000724E616D6523235F436F6E74726F6C203F
:1038F0006572726F7220737461747573203D202538
:10390000640D0A002003002010B5144601280AD0D7
:10391000B0B10E490968012917DB0146BDE8104026
:103920000BA001F0AFBB09B1012902D1032000F0C7
:10393000CFFE2246BDE8104008210F4800F07ABEB5
:10394000BDE81040032000F07DBF10BD88000020BE
:103950004D6F746F724E616D6523235F436F6E749C
:10396000726F6C206572726F7220737461747573FC
:10397000203D2025640D0A002003002010B51446C8
:1039800001280AD0B0B10E490968012917DB0146A8
:10399000BDE810400BA001F075BB09B1012902D1AF
:1039A000042000F095FE2246BDE8104004210F4897
:1039B00000F040BEBDE81040042000F043BF10BD41
:1039C000880000204D6F746F724E616D6523235F18
:1039D000436F6E74726F6C206572726F72207374B5
:1039E00061747573203D2025640D0A0020030020BA
:1039F00070B5134C4FF4FA750BE02068012805DB15
:103A000005F074FE01460FA001F03CFB2846FDF7CF
:103A1000D5FB05F06BFE0028EFD14FF47A7500BF9F
:103A200002F0FCFF002809D02068012802DB0AA070
:103A300001F028FB2846FDF7C1FBF1E770BD00004F
:103A40000000002030782578202849445F455252F4
:103A50004F52290D0A000000446D7020696E697490
:103A6000206572726F72200D0A0000003EB50024BE
:103A700011480094019402940E498460016004731B
:103A80000475012505614FF460214460C161FDF7B3
:103A90003FFA08B1FDF790F90820CDE90005694625
:103AA00002940548FDF7B6F9002801D0FDF784F926
:103AB0003EBD000000280140340100202DE9F04FF8
:103AC00085B00024354800940194029403948169E0
:103AD00041F020018161816901F020010491816937
:103AE00041F010018161816901F010010491816947
:103AF00041F004018161816901F00401049181694F
:103B000041F0080181618069DFF8949000F00800BD
:103B1000049000223F214846FDF766FCDFF884A0B0
:103B20004FF48067002239465046FDF75DFCDFF810
:103B300078B04FF4C058002241465846FDF754FC77
:103B4000002204211948FDF74FFC3F2001250226E1
:103B5000CDE90005CDE9024669464846FDF740FB40
:103B600000970396CDE9015469465046FDF738FBAE
:103B7000CDF800800396CDE9015469465846FDF71B
:103B80002FFB0420CDE90005CDE902466946074830
:103B9000FDF726FB05B0BDE8F08F000000100240E5
:103BA00000100140000C01400008014000140140D9
:103BB0000D4810B50B4901600C49416000214FF4DC
:103BC00080428160C0E9031241618161C16101628B
:103BD000FDF716FC002803D0BDE81040FDF7ECB857
:103BE00010BD00000054004064010020801A06004F
:103BF00010B58CB024216846FCF710FB0024164851
:103C000009944FF080410A94C0E900144EF66021F7
:103C1000C0E90241046184610320CDE90004012070
:103C2000CDE9020406210491CDE90540CDE9074123
:103C300069460948FEF7B3FB08B1FDF7BDF80994E2
:103C400009A905480A94FEF773FA002801D0FDF788
:103C5000B3F80CB010BD0000B801002010B58CB056
:103C600024216846FCF7DAFA00241648099414491E
:103C70000A94C0E900144EF66021C0E902410461D3
:103C800084610320CDE900040120CDE9020406216E
:103C90000491CDE90540CDE9074169460948FEF7A1
:103CA0007EFB08B1FDF788F8099409A905480A9434
:103CB000FEF73EFA002801D0FDF77EF80CB010BDEB
:103CC000000400400002002010B58CB0242168469A
:103CD000FCF7A4FA00241648099414490A94C0E990
:103CE00000144EF66021C0E90241046184610320A2
:103CF000CDE900040120CDE9020406210491CDE9BB
:103D00000540CDE9074169460948FEF748FB08B17F
:103D1000FDF752F8099409A905480A94FEF708FA34
:103D2000002801D0FDF748F80CB010BD0008004095
:103D30004802002010B58CB024216846FCF76EFACA
:103D400000241648099414490A94C0E900144EF658
:103D50006021C0E90241046184610320CDE90004CF
:103D60000120CDE9020406210491CDE90540CDE909
:103D7000074169460948FEF712FB08B1FDF71CF838
:103D8000099409A905480A94FEF7D2F9002801D040
:103D9000FDF712F80CB010BD000C0040900200209E
:103DA0001CB500240E4800940C4901940160472181
:103DB000C0E9011442F210718461C160FEF7F6F9A6
:103DC00008B1FCF7F9FF0094694605480194FEF735
:103DD000AFF9002801D0FCF7EFFF1CBD0010004038
:103DE000D802002010B596B000240F9410941194BE
:103DF000129413941C2168461494FCF70FFA2021A6
:103E000007A8FCF70BFA3548334901600121C0E9E6
:103E1000011440F2CF71C0E903148021C0E90541CB
:103E2000FEF7C4F908B1FCF7C7FF4FF480500F90BC
:103E30000FA92A48FEF748FA08B1FCF7BDFF27484A
:103E4000FEF728FD08B1FCF7B7FF139413A9234828
:103E50001494FEF76DF908B1FCF7AEFF6020CDE9D0
:103E600000040294039404940594002269461B48BC
:103E70000694FEF7ACFC08B1FCF79EFF04226946ED
:103E80001648FEF7A4FC08B1FCF796FF0822694625
:103E90001248FEF79CFC08B1FCF78EFF0C22694625
:103EA0000E48FEF794FC08B1FCF786FF07940894CF
:103EB00009944FF400500A94CDE90B4007A9074834
:103EC0000E94FEF70BF908B1FCF776FF0348FEF7F6
:103ED00057FC16B010BD0000003401402003002044
:103EE000FEE7000010B504460C480068032803DB19
:103EF00021460BA001F0C6F8201E02DD024600217B
:103F000003E004DA404202B20121012002E002464D
:103F100001210020BDE81040FFF782BC880000208E
:103F20004D6F746F725F415F536574537065656464
:103F3000205461726765642070776D20636F756EC1
:103F400074203D25640D0A0010B504460C48006835
:103F5000032803DB21460BA001F094F8201E02DDAC
:103F60000246002103E004DA404202B201210120AE
:103F700002E0024601210020BDE81040FFF78ABCA4
:103F8000880000204D6F746F725F425F53657453F9
:103F900070656564205461726765642070776D2078
:103FA000636F756E74203D25640D0A0010B50446DC
:103FB0000C480068032803DB21460BA001F062F8DF
:103FC000201E02DD0246002103E004DA404202B274
:103FD0000121012002E0024601210020BDE810403D
:103FE000FFF792BC880000204D6F746F725F435FD3
:103FF000536574537065656420546172676564200D
:1040000070776D20636F756E74203D25640D0A0016
:1040100010B504460C480068032803DB21460BA0BA
:1040200001F030F8201E02DD0246002103E004DA30
:10403000404202B20121012002E00246012100209B
:10404000BDE81040FFF79ABC880000204D6F746FE8
:10405000725F445F53657453706565642054617288
:104060006765642070776D20636F756E74203D25E1
:10407000640D0A0010B5052000F0E4FB002108489B
:1040800000F0C0FA0421064800F0BCFA08210448F8
:1040900000F0B8FABDE810400C21014800F0B2BAB7
:1040A00020030020704700002DE9F041254C451AFF
:1040B0004FF47A71A0692844A061884202DC494229
:1040C000884200DAA161B4F90200A1694843FCF713
:1040D0004FFBDFF874804146FCF72FF90746606913
:1040E000B4F90410281A4843FCF742FB4146FCF798
:1040F00024F90646B4F900006843FCF739FB414651
:10410000FCF71BF93146FCF7C0F83946FCF7BDF85F
:104110000646B4F90600FCF72BFB3146FCF7B5F870
:10412000FCF745FB00B2E0804FF4FA61656188421C
:1041300002DC4942884200DAE180B4F90600BDE8B9
:10414000F0810000C00000200AD7233C2DE9F04197
:10415000254C451A4FF47A71606A2844606288429F
:1041600002DC4942884200DA6162B4F90200616A05
:104170004843FCF7FDFADFF874804146FCF7DDF8B0
:104180000746206AB4F90410281A4843FCF7F0FAED
:104190004146FCF7D2F80646B4F900006843FCF744
:1041A000E7FA4146FCF7C9F83146FCF76EF83946A4
:1041B000FCF76BF80646B4F90800FCF7D9FA31466B
:1041C000FCF763F8FCF7F3FA00B220814FF4FA61D0
:1041D0002562884202DC4942884200DA2181B4F932
:1041E0000800BDE8F0810000C00000200AD7233C91
:1041F0002DE9F041254C451A4FF47A71206B284483
:104200002063884202DC4942884200DA2163B4F923
:104210000200216B4843FCF7ABFADFF8748041469B
:10422000FCF78BF80746E06AB4F90410281A4843F3
:10423000FCF79EFA4146FCF780F80646B4F9000008
:104240006843FCF795FA4146FCF777F83146FCF7EE
:104250001CF83946FCF719F80646B4F90A00FCF7D1
:1042600087FA3146FCF711F8FCF7A1FA00B2608139
:104270004FF4FA61E562884202DC4942884200DA82
:104280006181B4F90A00BDE8F0810000C00000209F
:104290000AD7233C2DE9F041254C451A4FF47A7199
:1042A000E06B2844E063884202DC4942884200DA3D
:1042B000E163B4F90200E16B4843FCF759FADFF817
:1042C00074804146FCF739F80746A06BB4F9041036
:1042D000281A4843FCF74CFA4146FCF72EF80646EC
:1042E000B4F900006843FCF743FA4146FCF725F8AF
:1042F0003146FBF7CAFF3946FBF7C7FF0646B4F95C
:104300000C00FCF735FA3146FBF7BFFFFCF74FFA1C
:1043100000B2A0814FF4FA61A563884202DC4942F1
:10432000884200DAA181B4F90C00BDE8F0810000F8
:10433000C00000200AD7233C1CB54FF4FA6000905F
:104340000A2001900C480068C16841F02001C1605A
:1043500000231A460121052004F046FE01236A4687
:104360001946184604F040FE012301AA194606200A
:1043700004F03AFE1CBD0000E80300207047000076
:1043800070B5164805F030FA154804F06FFC134874
:10439000144C134DC1882180018961804189A1801D
:1043A0000188E1804188218180880F4E60813146FB
:1043B0002868FBF7C2FFFCF7FAF9A081314668686C
:1043C000FBF7BBFFFCF7F3F9E0813146A868FBF788
:1043D000B4FFFCF7ECF9208270BD00003C04002023
:1043E0004C040020280400200000C84239493A4803
:1043F0000A88130A037042704A88130A8370C270D5
:104400008A88130A03714271CA88130A8371C271C0
:104410000A89130A037242724A89130A8372C272AA
:104420008A89130A03734273CA89130A8373C27396
:10443000098A0A0A0274417428490A88130A837493
:10444000C2744A88130A037542758A88130A8375F1
:10445000C275CA88130A037642760A89130A8376DC
:10446000C27649890A0A027741771D490A88130AE8
:104470008377C2774A88130A80F8203080F8212099
:104480008A88130A80F8223080F82320C9880A0A13
:1044900080F8242080F8251012490A88130A80F831
:1044A000263080F827204A88130A80F8283080F8C0
:1044B00029208A88130A80F82A3080F82B20C9889E
:1044C0000A0A80F82C2080F82D100622302100F0F6
:1044D000D1BB000028040020F8080020280100209B
:1044E0000E0000202600002070B5FCF77BFC364C47
:1044F000A0F5EA4030382080FCF77AFCA0F5EA40CD
:1045000030386080FCF77AFC47F23055281AA080DA
:10451000FCF77AFC281AE080284600F05BF8284671
:1045200000F05EF8284600F061F8284600F064F8D4
:1045300004F10800228801881144018041886288C2
:10454000114441808188A28811448180C188E28819
:104550001144C1801D49FEF7DDFE04F11801A01FC2
:10456000FFF7D6F804F11806B4F90010B6F9000008
:10457000FFF79AFD04F110052880B4F90210B6F98E
:104580000200FFF7E3FD6880B4F90410B6F90400F7
:10459000FFF72EFEA880B4F90610B6F90600FFF763
:1045A00079FEE880B5F90000FFF79CFCB5F9020040
:1045B000FFF7CAFCB5F90400FFF7F8FCB5F90600EF
:1045C000BDE87040FFF724BD0E0000202801002048
:1045D000704700000149096848627047B80100202F
:1045E0000149096848627047900200200149096842
:1045F00048627047480200200149096848627047D4
:104600000002002010B5FEF775F9002804D0BDE8BF
:10461000104002A000F036BD10BD00005365745F6D
:104620004D6F746F725F50574D206572726F720DCF
:104630000A000000006829B1042905D0082905D026
:10464000026470474263704782637047C263704779
:1046500010B53C210E48FDF797FF04463C210D485C
:10466000FDF792FF04443C210B48FDF78DFF044405
:104670003C210A48FDF788FFE04208D0084800685E
:10468000012804DBBDE8104006A000F0FBBC10BD13
:10469000B801002090020020480200200002002003
:1046A0009000002048414C5F54494D5F456E636F58
:1046B0006465725F5374617274206572726F7221E7
:1046C0000D0A00000148FDF7C9BD0000D802002016
:1046D00070B50C463D493C4D012809680CD00228B4
:1046E00022D003283AD0042850D001296ADBBDE843
:1046F000704037A000F0C6BC032903DB21463CA074
:1047000000F0C0FC4CB1012C5CD1002210212846E5
:10471000FCF76AFE0122202148E0012210212846F0
:10472000FCF762FE0022F6E7032903DB214635A0F1
:1047300000F0A8FC4FF40061374D4E0044B1012C4D
:1047400040D101222846FCF74FFE002231462DE0E1
:1047500000222846FCF748FE0122F7E7032903DB85
:1047600021462EA000F08EFC4CB1012C2AD1012252
:1047700011462846FCF738FE0022022116E00022EE
:1047800001212846FCF730FE0122F6E7032903DB6E
:10479000214627A000F076FC6CB1012C12D1012239
:1047A00004212846FCF720FE002208212846BDE807
:1047B0007040FCF719BE002204212846FCF714FEC5
:1047C0000122F2E770BD00000010014088000020C7
:1047D00053746172745F4D6F746F723A4E6F7420D0
:1047E0006D61746368204D6F746F720D0A00000074
:1047F0004D4F544F525F4120444943203D20256492
:104800000D0A00004D4F544F525F4220444943204F
:104810003D2025640D0A0000000801404D4F544F13
:10482000525F4320444943203D2025640D0A000087
:104830004D4F544F525F4420444943203D2025644E
:104840000D0A00002DE9F0412C4C2D4DE614A71463
:10485000062848D2DFE800F047030B141C2800228A
:1048600010212046FCF7C0FD0022202117E0002285
:1048700031462846FCF7B8FD0022394628460FE0AD
:10488000002201212046FCF7AFFD0022022106E0B4
:10489000002204212046FCF7A7FD00220821204623
:1048A000BDE8F041FCF7A0BD002210212046FCF736
:1048B0009BFD002220212046FCF796FD0022314678
:1048C0002846FCF791FD002239462846FCF78CFD6E
:1048D000002201212046FCF787FD0022022120460C
:1048E000FCF782FDD4E707480068012804DBBDE837
:1048F000F04105A000F0C6BBBDE8F081001001400A
:10490000000801408800002053746F705F4D6F7481
:104910006F723A4E6F74206D61746368204D6F74CE
:104920006F720000FDF728B830B595B028216846B1
:10493000FBF774FC14210AA8FBF770FC18210FA8E0
:10494000FBF76CFC01210804CDE90010002502955D
:1049500002240491CDE907404FF4E0100990684625
:10496000FDF716FA08B1FCF727FA0AA90F2081E82B
:1049700031004FF48060CDE90D0502210AA8FDF752
:104980001BF908B1FCF718FA4FF4004011900F948E
:104990000FA8FDF79BF8002801D0FCF70DFA15B021
:1049A00030BD70470148FDF737BE0000D802002037
:1049B000F0B502681C4B1D4D1D4E1E4F1E4C4FF096
:1049C000804C984209D0A04207D0604505D0A8424B
:1049D00003D0B04201D0B84204D122F0700E4A6830
:1049E00042EA0E02984209D0A04207D0604505D0A5
:1049F000A84203D0B04201D0B84203D122F440759E
:104A0000CA682A434D6922F080022A4302608A68FC
:104A1000C2620A688262984201D0A04201D109694B
:104A2000016301214161F0BD002C01400004004000
:104A300000080040000C00400034014010B501F0B7
:104A40001F030121046A99408C430462016A9A4061
:104A50001143016210BD10B5846842EA032224F4B8
:104A60007F440A432243826010BD826822F07002B4
:104A70000A4342F00701816070470000F0B5026A06
:104A800022F001020262036A42688469124E24F035
:104A900073050C682C4323F002058B682B430D4DE6
:104AA000A84201D0B04205D123F00807CB683B43B0
:104AB00023F00403A84201D0B04205D14D6922F48D
:104AC000407215438A692A434260846149684163A0
:104AD0000362F0BD002C014000340140F0B5026AD1
:104AE00022F010020262026A436884690D6824F4AD
:104AF000E64444EA05248D6822F0200242EA0512C9
:104B00000F4D104EA84201D0B04206D1CF6822F01E
:104B1000800242EA071222F04002A84201D0B042CD
:104B200007D14D6923F4406343EA85038D6943EA65
:104B3000850343608461496881630262F0BD0000BF
:104B4000002C014000340140F0B5026A22F480726A
:104B50000262026A4368C46922F4007224F0730599
:104B60000C68124E2C438D6842EA05220E4DA84275
:104B700001D0B04206D1CF6822F4006242EA072297
:104B800022F48062A84201D0B04207D14D6923F4DB
:104B9000405343EA05138D6943EA05134360C4613A
:104BA0004968C1630262F0BD002C0140003401403D
:104BB00030B5026A22F480520262046A4268C36914
:104BC0000D6823F4E64343EA05238D6824F400547A
:104BD00044EA0534084DA84202D0084DA84204D149
:104BE0004D6922F4804242EA85124260C3614968FD
:104BF0000164046230BD0000002C0140003401401B
:104C000010B5036A046A24F001040462846924F084
:104C1000F00444EA021423F00A020A4384610262A7
:104C200010BD10B5036A23F0100303628369046AA0
:104C300023F4704343EA023224F0A00343EA011153
:104C40008261016210BD10B5406A0021C185C18436
:104C5000FDF7B9FE10BD0168CA6822F49072CA60FF
:104C600001684A6922F001024A61202180F83A1065
:104C700070470000F0B40024322923D8124BAA2533
:104C80001D7055255D704D1D9D70DA70002204E089
:104C9000865C9F18521C3E71D2B28A42F8D3091D1D
:104CA000C9B2002004E01A5C401C2244D4B2C0B255
:104CB0008842F8D31C54EAB2F0BC044B02490448C1
:104CC000FEF7E6B8F0BC704770090020FFFF0F0048
:104CD000A803002010B590F83A10222901D0022034
:104CE00010BD82684FF480539A4201D1016921B10D
:104CF000816A9A421BD04AB10AE00268816A52680E
:104D0000C2F308020A80816A891C08E0026972B154
:104D10000268526802F07F020A70816A491C81624F
:104D2000C18D491E0904090CC18503D016E0026833
:104D30005268F1E70168CA6822F02002CA6001687F
:104D4000CA6822F48072CA6001684A6922F00102CE
:104D50004A61202180F83A10FDF7E4FF002010BDE1
:104D600070B5044600680169E26821F440511143BE
:104D700001612169A0680843616908432168CA6824
:104D800041F20C639A430243CA6020684169A269F8
:104D900021F44071114341611E492068884202D1CB
:104DA000FCF7B0FF01E0FCF79DFF00EBC00101EB59
:104DB0000012606864218000B2FBF0F3B3FBF1F3F2
:104DC0006FF018067343B2FBF0F5B2FBF0F605EB9B
:104DD0008305322303EB0515B5FBF1F5B6FBF1F6C0
:104DE00005F0F00505EB0615B2FBF0F6B2FBF0F0AE
:104DF000B0FBF1F06FF01802504306EB800003EBBC
:104E00000010B0FBF1F0216800F00F00284488602A
:104E100070BD0000003801402DE9F041984617466A
:104E20000E460446069D1DE0681C1BD02DB1FCF704
:104E3000E1FAA0EB0800A84214D92068C16821F467
:104E4000D071C1602068416921F0010141612020D9
:104E500084F8390084F83A00002084F838000320F0
:104E6000BDE8F0812068006836EA000004D0002028
:104E7000B842D9D00020F3E70120F9E710B5054882
:104E8000FDF7A2FDBDE81040102203490148FDF7DF
:104E90001FBF00006803002068040020054810B50B
:104EA00000684068C0B200F007F8BDE81040014853
:104EB000FDF78ABDA80300202DE9F041474C0025ED
:104EC000474E2178032915D231B1012909D0B0709C
:104ED00003212170401E16E0AA2807D1307001205E
:104EE00003E0552804D1707002202070BDE8F081E5
:104EF0002570FBE7B278521E8A4206DD7054491CC9
:104F00002170617808446070F0E761788842EDD1E3
:104F10003348F7788188C2880389112F02D0122F75
:104F200032D043E048BA52BA01B216B22D485ABA4A
:104F300013B20180468041F288328380914200DDC5
:104F40000280B0F9007028498F4200DA0180964251
:104F500000DD4280B0F902608E4200DA4180934267
:104F600000DD8280B0F904208A4200DA8180616825
:104F70000329BDDBB0F90430B0F90220B0F900100C
:104F80001AA000F07FF8B3E748BA01B221480180C7
:104F900050BA02B22048028058BA03B21F480380B8
:104FA00060680128A4DB1EA000F06CF8F0781328DC
:104FB0009ED1B088234F40BA3880F08840BA7880BC
:104FC0003846FEF759FB6068012891DBB7F90220EB
:104FD000B7F900101CA000F055F889E71001002077
:104FE000340900200800002078ECFFFF526563655B
:104FF00069766520524F5320537065656428782C7C
:10500000792C796177293D25642C25642C25640D44
:105010000A000000C0000020C2000020C4000020E0
:105020005265636569766520524F53205049442884
:10503000502C492C44293D25642C25642C25640DD5
:105040000A00000004000020726F626F745F7061DC
:1050500072616D732825642C2564290D0A000000F7
:10506000064808B5006840688DF8000001216846D0
:1050700003F0E8FC0148FDF7A7FC08BDE8030020A9
:10508000FEE700000FB4054B10B503A9044A0298CF
:1050900000F01AFC10BC5DF814FB0000C17600089B
:1050A00020010020490050EAC12018BF04204A0D09
:1050B00018BF40F0010040F2FF72B2EB515F08BF31
:1050C00040F00200012808BF052070470907090EBB
:1050D000002804DB00F1E02080F80014704700F0A5
:1050E0000F0000F1E02080F8141D70470048704761
:1050F000240100202DE9F74F144694B00021C4E9A3
:1051000002111599079121F00045C9498D4206DC2D
:105110001599C4E9000117B00020BDE8F08FC5491A
:10512000DFF814A3A9423CDD0799C44E0029C44FFF
:10513000C44A1599534619DDFBF71CFA554506D0AC
:10514000C14AC24BFBF716FAC4E900010AE04FF06E
:10515000D352BE4BFBF70EFA32463B46FBF70AFA38
:10516000C4E9000117B00120BDE8F08FFBF761F939
:10517000554506D0B44AB54BFBF75BF9C4E90001CD
:105180000AE04FF0D352B14BFBF753F932463B469E
:10519000FBF74FF9C4E9000117B04FF0FF30BDE84D
:1051A000F08FAB49A942159978DB21F00041834685
:1051B0008846A84AA84BFBF7E3F90022A74BFBF768
:1051C00038F9FBF721FB0990FBF7E0FA06460F469A
:1051D0009C4A5346FBF7D4F943465A46FBF7CDF9B0
:1051E00080468A46984A994B30463946FBF7C8F9BB
:1051F0002A0D01250B9242465346FBF7BEF9032DBB
:10520000C4E9000139D00B98C1F30A51401A05EBEB
:1052100045111139814230DA9148C346784400EB98
:105220000510CDF80CA00C90D0E90023304639468B
:10523000FBF7A6F902460B460491069058460399DF
:10524000FBF798F980468A4602460B465846039972
:10525000FBF790F9049B069AFBF78CF983460C98B0
:1052600003913946D0E902233046FBF789F95A46C3
:10527000039BFBF77FF96D1CBDE707980028A2BFD1
:10528000099817B0BDE8F08F616881F00041616056
:10529000099817B04042BDE8F08FFFE784461598A3
:1052A000C1F31301C0F30A50A0F2F5304FEA6018C1
:1052B00000F01F06C6F12000139000200690079012
:1052C00041F4801E05206D4676B1664A08EB000168
:1052D0007A4452F8213002EB8101B3404A681399B5
:1052E00022FA01F1194305E05F4908EB0002794415
:1052F00051F82210A1FB0E27A1FB0C131A449A426D
:1053000034BF0123002303EB070A05EB8003D3E935
:1053100001B70F448F4234BF0121002193448B44D5
:1053200011B1934502D903E0934501D2012100E078
:105330000021C3E901B7514445F82010011EA0F136
:105340000100C1DC0298059F00F10050800F12900F
:105350000298DDE903568000FBF718FA83462846D9
:105360000D91FBF7D1FC6FF01D02FBF7EAF9CDE9D7
:105370000E013046FBF7C8FC6FF03D02FBF7E1F988
:1053800080468A463846FBF7BFFC6FF05D02FBF7AC
:10539000D8F90746424653461191FBF74AF8DDE932
:1053A0000E23FBF746F85A460D9BFBF742F8002503
:1053B0000E465A4628460D9BFBF7DCF8DDE90E2326
:1053C000FBF7D8F842465346FBF7D4F83A46119B10
:1053D000FBF7D3F8DFF898A0244A5346FBF7D0F840
:1053E00007468846234A244B31462846FBF7C8F82F
:1053F0003A464346FBF71DF8074688464FF0A84259
:10540000534631462846FBF7BBF83A464346FBF77E
:1054100010F8159A12F0004F04D0129A81F0004152
:1054200052421292C4E90001129817B0BDE8F08F01
:10543000FB21E93F7CD90240FB21F93F7370032E29
:105440008A19A33B000040543163621A61B4D03D15
:10545000FB21394183C8C96D305FE43F0000E03F64
:10546000086200008461000066610000182D445449
:10547000FB21F93D3326A611460B113C2DE9FF4DCA
:1054800021F0004807460C46B8F1795F08DAFBF7CF
:10549000BBF9002801BF0020324904B0BDE8F08DFF
:1054A0003A46234610461946FBF76AF80546024677
:1054B0002D480E460B460621784400F05DF82A463A
:1054C0003346FBF75DF8DDE9022382468B4638461A
:1054D0002146FBF755F804460F4652465B462846E0
:1054E0003146FBF74DF822463B46FBF743F80746AB
:1054F0008A464FF0FF3228463146FBF722F91B4A15
:1055000090450ADA3A465346FBF734F804B00022D5
:10551000BDE8F04D134BFBF730B8154A4245A8BF24
:10552000A8F500154FF00004B8BF124D22462B46D7
:10553000FBF720F80646884622462B4600200949FC
:10554000FBF718F804460D463A46534630464146A6
:10555000FBF710F804B022462B46BDE8F04DFBF7F0
:105560000CB800000000F03F345F00003333D33F3D
:105570000000E93F0000D23F2DE9F0414F1E00EB53
:10558000C7010446D1E9000115461E4637F0060260
:105590000DD02A463346FAF7F3FF7F1E04EBC7030C
:1055A000D3E90023FAF745FF37F00602F1D1022FC5
:1055B00025D0042F13D0062F18BFBDE8F0812A464E
:1055C0003346FAF7DDFFD4E90A23FAF732FF2A4619
:1055D0003346FAF7D5FFD4E90823FAF72AFF2A461B
:1055E0003346FAF7CDFFD4E90623FAF722FF2A461D
:1055F0003346FAF7C5FFD4E90423FAF71AFF2A461F
:105600003346FAF7BDFFD4E90223FAF712FF2A4620
:105610003346FAF7B5FFD4E90023BDE8F041FAF7C5
:1056200008BF00002DE9FF4D054621F0004084B081
:105630000C46B0F1795F0BDA2846FFF733FD0428FA
:1056400008BF00F071F8284608B02146BDE8F08D8B
:105650002A460B461046FAF793FF06460F462A469F
:105660002346FAF78DFF804626488A4632463B4657
:1056700005217844FFF780FF83461098029160B3BC
:10568000214A224B40465146FAF77AFFCDE9000104
:105690005A4640465146029BFAF772FF82468846B8
:1056A000DDE906014FF0FF32FBF74BF85246434667
:1056B000FAF760FF32463B46FAF762FFDDE9062360
:1056C000FAF758FFDDE90023FAF754FF08B02A463D
:1056D0002346BDE8F04DFAF750BF0B465A46304618
:1056E0003946FAF74DFF084A084BFAF7A2FE424640
:1056F0005346FAF745FF08B02A462346BDE8F04D69
:10570000FAF797BE7A5E0000495555555555C5BF05
:105710000122FBF716B8FAF78CBE0022134610469A
:105720001146FAF79FBF0000024A00201107FBF75D
:1057300008B8000001FDFFFF02E008C8121F08C101
:10574000002AFAD170477047002001E001C1121F02
:10575000002AFBD170470000014908607047000033
:10576000240100202DE9FF5FDDE90220010DDDF8B5
:1057700038B0024318D044F61050A1F2FF31414333
:105780000D140F98012820D0A5EB0B00401C5FEAF8
:10579000000A4FF00004474EDFF81C91A046504627
:1057A00016D5CAF1000728E00F98012443A201286A
:1057B00008D0002100980F9BC0E90021C0E90243F6
:1057C000BDE8FF9F6FEA0B01F4E7CBF10000DEE7D5
:1057D000074612E0F80707D02246334640464946BE
:1057E000FAF7CEFE804689462246334610461946D1
:1057F000FAF7C6FE04460E467F10002FEAD1DDE917
:105800000201BAF1000F42464B4602DAFAF7B8FE3F
:1058100001E0FAF727FF04460E460022284BFBF76B
:105820003DF803D84FF0FF30014607E00022254B3A
:1058300020463146FAF7FDFDFBF798F9102409E000
:10584000002C0ADB0A220023FBF772F8019B30329E
:105850001A55641E50EA0102F2D1641C019AC4F187
:10586000110314440F9A012A03D0012208430DD1D9
:105870000AE0084304D000204FF0110B0F9080E79E
:10588000A3EB0B056D1E0DE05B4504DD4FF0000240
:1058900005F1010504E003DA4FF00002A5F101056E
:1058A000002AECD000980F99C0E90231C0E9004508
:1058B00086E70000000024400000F03F30000000B8
:1058C0000000F0430000E03F2DE9FF4F95B09B46FC
:1058D0008946064600250FE2252877D10024274671
:1058E000F84A0121059400E0044316F8013F203BEB
:1058F00001FA03F01042F7D130782A2811D06FF066
:105900002F033078A0F13002092A16D8059A44F006
:10591000020402EB820203EB42021044761C059063
:10592000EFE759F8042B0592002A03DA504244F4B9
:105930000054059044F00204761C30782E2816D1CD
:1059400016F8010F44F004042A280DD06FF02F023E
:105950003078A0F13003092B09D807EB870302EB5D
:105960004303C718761CF3E759F8047B761C30789C
:105970006C280FD006DC4C2817D068280DD06A2878
:1059800014D104E0742810D07A280FD10DE044F42B
:1059900000140AE044F4801401E044F440147278E6
:1059A000824202D104F58014761C761C3078662879
:1059B0000BD013DC582877D009DC002875D0452897
:1059C000F6D04628F4D047281AD19DE118E0632884
:1059D00035D0642879D0652812D195E1702873D02C
:1059E00008DC6728F1D069286FD06E280DD06F28A9
:1059F00006D1B5E073282CD0752875D0782874D0DE
:105A00005A46179990476D1C75E1C4F3025002285D
:105A100009D003280DD0D9F8001004280DD00D604E
:105A200009F1040967E1D9F80010EA17C1E9005249
:105A3000F6E7D9F800100D80F2E70D70F0E719F8DD
:105A4000041B8DF8001000208DF80100EA460120AB
:105A500003E059F804AB4FF0FF3061074FF000014D
:105A600002D40DE008F101018846B9420FDA804501
:105A7000F8DB1AF808100029F4D108E008F1010158
:105A800088468142FADB1AF808100029F6D10598F9
:105A90005B46A0EB080721463846179A00F094FAB7
:105AA000284400EB080507E04DE029E10DE01AF875
:105AB000010B5A4617999047B8F10108F7D25B4697
:105AC00021463846179A13E142E00A220092C4F3B5
:105AD00002524FF0000A022A08D059F804CB032AD8
